:020000040000fa
:080000000001040000000000f3
:020000040000fa
:100200006f8720000e7922000e0188000000000098
:100210000c00070000422000010020001100070030
:10022000000020000000e000020032000000020098
:100230000000000040020200000000000040da0060
:100240000000fe004440a900000020000000e00083
:100250000300320000002000a00188004440a800f4
:100260000000060091018800800078000000eb008b
:1002700015003700e280400032a0b4009101ba00be
:10028000e280400032a0b4009102ba00e280400057
:1002900032a0b4000002eb00472bde00f507b200ed
:1002a000602ce10004003a000059eb008301e900f2
:1002b000fdff3e00040037006128e100010032002c
:1002c0000082eb00040007001101ba000200e00008
:1002d000e8ff3a00000006003159ba008301e90046
:1002e0000c0032002159ba008301e90008003200f5
:1002f0000400e00003003a00e280400032a0b400b5
:10030000f5ff370011d9ba008301e900faff3a007e
:100310008100e800e180400032a0b4000000060047
:100320000000fa00e402a900e422a900e442a900c6
:10033000e462a900e4c2a900c1e1a900c0c1bf00f4
:100340003040b300c0e1b700210e8000000028005b
:1003500000806000016f200001007000200e880006
:10036000c801a800c821a800c841a800c881a800e9
:10037000c8a1a800c8c1a800ca41a900c11c20008a
:100380009140780000ccb30000c07000cce1b70011
:10039000c11c20009140780000ccb30000c0600078
:1003a000a040b300cce1b700d201a900d221a9003e
:1003b000d241a900b01020001008880005e1a90072
:1003c000012a20009140780000ceb30000c07000e8
:1003d000a0e2b700a062a9000000eb0010158800a1
:1003e000512a20009140780000ceb30000c0600088
:1003f0000014a000a5e2b700412a20009140780037
:1004000000ccb30000c060005040b300a4e2b700cd
:1004100030012800401588000000eb0050158800ce
:10042000a1e2a90081e0a800aac0bf007040b3000b
:10043000aae0b7009180a8008c60a80051092000b4
:1004400091407800f0c8b30000c0600001c5b3005f
:100450000140700095e0b70090e0a900710a20000b
:1004600091407800f0c8b30000c0600001c6b3003e
:1004700001407000a7e0b7000080fa00000006000d
:100480000000fa00a6ff0700c1e1a90090e0a90062
:10049000a1e2a80010002000900e88000000eb00f0
:1004a000b00e88000000eb00c00e88000000eb00da
:1004b000d00e880005e1a800c1e1a80090e0a800e6
:1004c000000037009142800080428000808f500001
:1004d0000c003500a1428000b04280000080400046
:1004e0000080d100c0428800c1428000d04280001c
:1004f000808f5000010035008980a8000000eb00cb
:1005000090428800e1428000f0428000808f5000dd
:10051000ecff35006043800030438800504380008a
:100520004243800011438000c44280008001780073
:10053000040078006e00070070438800304380009c
:10054000604388007143800080438000808f5000aa
:1005500002003500804380007043880071438000b2
:1005600090438000808f500002003c009043800048
:1005700070438800704380004380de007043880031
:1005800071438000a04380000080400070438800d9
:10059000ff3ffc0070438000b00e88000000fc00ac
:1005a0000000eb00e0428800c6ff370000a0fe001c
:1005b0000000fa00904280000000e80090428800ad
:1005c000e04280000000e800e04288008460a9006a
:1005d0000080fa000080fe000040060000a0fe003f
:1005e0000000fa003030200030158800a022a8005a
:1005f000a002ae00feff3700a002aa000014800097
:10060000a04288002020200030158800a022a800e9
:10061000a002ae00feff3700a002aa000014800076
:10062000b04288008080200030158800a022a800f9
:10063000a002ae00feff3700a002aa000014800056
:10064000008052000003eb000600e6000000eb0013
:10065000264380000680e6008980a80000438800c9
:1006600088e0a9000080fa000080fe00004006003b
:1006700000a0fe000000fa00c1e1a9000000eb00ac
:10068000400e88000060fe008980a9000080fa000a
:100690000080fe00004006000600fa0020079800d7
:1006a0000000eb00000f78000c0037000000eb00aa
:1006b00010079800040037000060fe001e00900044
:1006c0000000e800100798009e009000e0822600dd
:1006d000808f5000f8ff36001e0fe8002e009000bb
:1006e0009e0f1000f1ff39000080fa0000000600a4
:1006f000ff3ffc0001005000060402000000000063
:1007000000027800820278001301c0004100c80096
:10071000c003020000000000060402000000000008
:1007200000047800394380000900420006040200fa
:100730000000000000027800304388008302780047
:100740001301c0004100c800c00302000000000007
:100750000604020000000000800478000900440044
:100760008a4380009b4380000a80e6000a007800ec
:100770000b00e6000b0078004380de002e003700ff
:100780004220ef0060026a000a0033002a01800064
:100790000a00e00018003a001a0180000a00e00098
:1007a00018003200020009004555de0012003a0030
:1007b000140037002a018000fbff2f000a00e00030
:1007c00001003a000f0037000b50e10007003a002b
:1007d0001a0180000a00e0000a003200020009004d
:1007e0004555de0001003200060037001a022800dd
:1007f0001a01880003003700fafd27001a0188005b
:10080000000037001001800000000600fafd230000
:100810001b022c000a00e10003003d000b00e10078
:1008200003003400030037000a007800010037009d
:100830000b007800000006000000fc00000006002d
:020000040000fa
:0200000401f009
:04000000f7ff000006
:020000040000fa
:0200000401f009
:04000400ff7f00007a
:020000040000fa
:0200000401f009
:04000800ffff0000f6
:020000040000fa
:1000080042040000420400004204000042040000d0
:1000180042040000420400004204000042040000c0
:10002800420400004204000042040000d60200001e
:1000380042040000420400004204000042040000a0
:100048004204000042040000420400004204000090
:100058004204000042040000420400004204000080
:100068004204000042040000420400004204000070
:100078004204000042040000420400004204000060
:100088004204000042040000420400004204000050
:100098004204000042040000420400004204000040
:1000a8004204000042040000420400004204000030
:1000b800420400004204000042040000ee02000076
:1000c8004204000042040000420400004204000010
:1000d800380300004204000042040000420400000b
:1000e80042040000420400004204000042040000f0
:0800f800420400004204000074
:020000040000fa
:1001080042040000420400004204000042040000cf
:1001180042040000420400004204000042040000bf
:10012800420400004204000042040000d60200001d
:10013800420400004204000042040000420400009f
:10014800420400004204000042040000420400008f
:10015800420400004204000042040000420400007f
:10016800420400004204000042040000420400006f
:10017800420400004204000042040000420400005f
:10018800420400004204000042040000420400004f
:10019800420400004204000042040000420400003f
:1001a800420400004204000042040000420400002f
:1001b800420400004204000042040000ee02000075
:1001c800420400004204000042040000420400000f
:1001d800380300004204000042040000420400000a
:1001e80042040000420400004204000042040000ef
:0801f800420400004204000073
:020000040000fa
:1008400050080000260000000200000032000000f6
:1008500000000000000000000098030000000400f9
:10086000000000002e0082000000000024000900ab
:10087000000000000000b0003650c900f006000083
:040880000000000074
:020000040000fa
:080884000040da000000fe0054
:00000001FF
